{
  "contractName": "Project",
  "abi": [
    {
      "constant": true,
      "inputs": [],
      "name": "txLimit",
      "outputs": [
        {
          "name": "",
          "type": "uint256"
        }
      ],
      "payable": false,
      "stateMutability": "view",
      "type": "function",
      "signature": "0x6caae832"
    },
    {
      "constant": true,
      "inputs": [],
      "name": "delegator",
      "outputs": [
        {
          "name": "",
          "type": "address"
        }
      ],
      "payable": false,
      "stateMutability": "view",
      "type": "function",
      "signature": "0xce9b7930"
    },
    {
      "constant": true,
      "inputs": [],
      "name": "requestor",
      "outputs": [
        {
          "name": "",
          "type": "address"
        }
      ],
      "payable": false,
      "stateMutability": "view",
      "type": "function",
      "signature": "0xebd73bf7"
    },
    {
      "constant": true,
      "inputs": [
        {
          "name": "id",
          "type": "uint256"
        }
      ],
      "name": "getdelegator",
      "outputs": [
        {
          "name": "",
          "type": "address"
        }
      ],
      "payable": false,
      "stateMutability": "view",
      "type": "function",
      "signature": "0x611208bc"
    },
    {
      "constant": true,
      "inputs": [
        {
          "name": "id",
          "type": "uint256"
        }
      ],
      "name": "getrequestor",
      "outputs": [
        {
          "name": "",
          "type": "address"
        }
      ],
      "payable": false,
      "stateMutability": "view",
      "type": "function",
      "signature": "0xa0e177bd"
    },
    {
      "constant": true,
      "inputs": [
        {
          "name": "id",
          "type": "uint256"
        }
      ],
      "name": "getCode",
      "outputs": [
        {
          "name": "",
          "type": "string"
        }
      ],
      "payable": false,
      "stateMutability": "view",
      "type": "function",
      "signature": "0xa6fc5c03"
    },
    {
      "constant": true,
      "inputs": [
        {
          "name": "id",
          "type": "uint256"
        }
      ],
      "name": "getSource",
      "outputs": [
        {
          "name": "",
          "type": "string"
        }
      ],
      "payable": false,
      "stateMutability": "view",
      "type": "function",
      "signature": "0xf1f99f2c"
    },
    {
      "constant": true,
      "inputs": [
        {
          "name": "id",
          "type": "uint256"
        }
      ],
      "name": "getDestination",
      "outputs": [
        {
          "name": "",
          "type": "string"
        }
      ],
      "payable": false,
      "stateMutability": "view",
      "type": "function",
      "signature": "0x627a04a5"
    },
    {
      "constant": true,
      "inputs": [
        {
          "name": "id",
          "type": "uint256"
        }
      ],
      "name": "getPay",
      "outputs": [
        {
          "name": "",
          "type": "uint256"
        }
      ],
      "payable": false,
      "stateMutability": "view",
      "type": "function",
      "signature": "0x254dc7dd"
    },
    {
      "constant": true,
      "inputs": [],
      "name": "getDeleCount",
      "outputs": [
        {
          "name": "",
          "type": "uint256"
        }
      ],
      "payable": false,
      "stateMutability": "view",
      "type": "function",
      "signature": "0xa96ad443"
    },
    {
      "constant": false,
      "inputs": [
        {
          "name": "delegate",
          "type": "string"
        },
        {
          "name": "destination",
          "type": "string"
        },
        {
          "name": "secret",
          "type": "string"
        }
      ],
      "name": "release",
      "outputs": [],
      "payable": true,
      "stateMutability": "payable",
      "type": "function",
      "signature": "0x379037dc"
    },
    {
      "constant": true,
      "inputs": [
        {
          "name": "s",
          "type": "string"
        }
      ],
      "name": "delegate",
      "outputs": [
        {
          "name": "",
          "type": "address"
        },
        {
          "name": "",
          "type": "string"
        },
        {
          "name": "",
          "type": "uint256"
        }
      ],
      "payable": false,
      "stateMutability": "view",
      "type": "function",
      "signature": "0x9ddb511a"
    },
    {
      "constant": true,
      "inputs": [
        {
          "name": "addr",
          "type": "address"
        }
      ],
      "name": "getSecretInfo",
      "outputs": [
        {
          "name": "",
          "type": "string"
        }
      ],
      "payable": false,
      "stateMutability": "view",
      "type": "function",
      "signature": "0x4aa3b48e"
    },
    {
      "constant": false,
      "inputs": [
        {
          "name": "addr",
          "type": "address"
        }
      ],
      "name": "acceptDelegate",
      "outputs": [
        {
          "name": "",
          "type": "string"
        }
      ],
      "payable": true,
      "stateMutability": "payable",
      "type": "function",
      "signature": "0xe2feb35c"
    },
    {
      "constant": false,
      "inputs": [],
      "name": "confirmReceived",
      "outputs": [],
      "payable": true,
      "stateMutability": "payable",
      "type": "function",
      "signature": "0x73fac6f0"
    },
    {
      "constant": false,
      "inputs": [],
      "name": "confirmNotReceived",
      "outputs": [],
      "payable": true,
      "stateMutability": "payable",
      "type": "function",
      "signature": "0x20fe1f26"
    },
    {
      "constant": true,
      "inputs": [],
      "name": "getContractBal",
      "outputs": [
        {
          "name": "",
          "type": "uint256"
        }
      ],
      "payable": false,
      "stateMutability": "view",
      "type": "function",
      "signature": "0x5d9fa6fc"
    },
    {
      "constant": true,
      "inputs": [
        {
          "name": "s",
          "type": "string"
        }
      ],
      "name": "getDelegation",
      "outputs": [
        {
          "name": "",
          "type": "uint256"
        }
      ],
      "payable": false,
      "stateMutability": "view",
      "type": "function",
      "signature": "0x1d813f47"
    },
    {
      "constant": true,
      "inputs": [],
      "name": "getDelegator",
      "outputs": [
        {
          "name": "",
          "type": "address"
        }
      ],
      "payable": false,
      "stateMutability": "view",
      "type": "function",
      "signature": "0xf3e2dbc6"
    },
    {
      "constant": true,
      "inputs": [],
      "name": "getRequestor",
      "outputs": [
        {
          "name": "",
          "type": "address"
        }
      ],
      "payable": false,
      "stateMutability": "view",
      "type": "function",
      "signature": "0xa3f5b1bf"
    }
  ],
  "bytecode": "0x60806040526000600860006101000a81548163ffffffff021916908363ffffffff16021790555034801561003257600080fd5b5061269b806100426000396000f3fe608060405260043610610112576000357c0100000000000000000000000000000000000000000000000000000000900463ffffffff1680631d813f471461011757806320fe1f26146101f3578063254dc7dd146101fd578063379037dc1461024c5780634aa3b48e146104355780635d9fa6fc146104ff578063611208bc1461052a578063627a04a5146105a55780636caae8321461065957806373fac6f0146106845780639ddb511a1461068e578063a0e177bd14610809578063a3f5b1bf14610884578063a6fc5c03146108db578063a96ad4431461098f578063ce9b7930146109ba578063e2feb35c14610a11578063ebd73bf714610ace578063f1f99f2c14610b25578063f3e2dbc614610bd9575b600080fd5b34801561012357600080fd5b506101dd6004803603602081101561013a57600080fd5b810190808035906020019064010000000081111561015757600080fd5b82018360208201111561016957600080fd5b8035906020019184600183028401116401000000008311171561018b57600080fd5b91908080601f016020809104026020016040519081016040528093929190818152602001838380828437600081840152601f19601f820116905080830192505050505050509192919290505050610c30565b6040518082815260200191505060405180910390f35b6101fb610eda565b005b34801561020957600080fd5b506102366004803603602081101561022057600080fd5b8101908080359060200190929190505050611275565b6040518082815260200191505060405180910390f35b6104336004803603606081101561026257600080fd5b810190808035906020019064010000000081111561027f57600080fd5b82018360208201111561029157600080fd5b803590602001918460018302840111640100000000831117156102b357600080fd5b91908080601f016020809104026020016040519081016040528093929190818152602001838380828437600081840152601f19601f8201169050808301925050505050505091929192908035906020019064010000000081111561031657600080fd5b82018360208201111561032857600080fd5b8035906020019184600183028401116401000000008311171561034a57600080fd5b91908080601f016020809104026020016040519081016040528093929190818152602001838380828437600081840152601f19601f820116905080830192505050505050509192919290803590602001906401000000008111156103ad57600080fd5b8201836020820111156103bf57600080fd5b803590602001918460018302840111640100000000831117156103e157600080fd5b91908080601f016020809104026020016040519081016040528093929190818152602001838380828437600081840152601f19601f820116905080830192505050505050509192919290505050611295565b005b34801561044157600080fd5b506104846004803603602081101561045857600080fd5b81019080803573ffffffffffffffffffffffffffffffffffffffff16906020019092919050505061174b565b6040518080602001828103825283818151815260200191508051906020019080838360005b838110156104c45780820151818401526020810190506104a9565b50505050905090810190601f1680156104f15780820380516001836020036101000a031916815260200191505b509250505060405180910390f35b34801561050b57600080fd5b5061051461182c565b6040518082815260200191505060405180910390f35b34801561053657600080fd5b506105636004803603602081101561054d57600080fd5b810190808035906020019092919050505061184b565b604051808273ffffffffffffffffffffffffffffffffffffffff1673ffffffffffffffffffffffffffffffffffffffff16815260200191505060405180910390f35b3480156105b157600080fd5b506105de600480360360208110156105c857600080fd5b810190808035906020019092919050505061188b565b6040518080602001828103825283818151815260200191508051906020019080838360005b8381101561061e578082015181840152602081019050610603565b50505050905090810190601f16801561064b5780820380516001836020036101000a031916815260200191505b509250505060405180910390f35b34801561066557600080fd5b5061066e611943565b6040518082815260200191505060405180910390f35b61068c611949565b005b34801561069a57600080fd5b50610754600480360360208110156106b157600080fd5b81019080803590602001906401000000008111156106ce57600080fd5b8201836020820111156106e057600080fd5b8035906020019184600183028401116401000000008311171561070257600080fd5b91908080601f016020809104026020016040519081016040528093929190818152602001838380828437600081840152601f19601f820116905080830192505050505050509192919290505050611c42565b604051808473ffffffffffffffffffffffffffffffffffffffff1673ffffffffffffffffffffffffffffffffffffffff16815260200180602001838152602001828103825284818151815260200191508051906020019080838360005b838110156107cc5780820151818401526020810190506107b1565b50505050905090810190601f1680156107f95780820380516001836020036101000a031916815260200191505b5094505050505060405180910390f35b34801561081557600080fd5b506108426004803603602081101561082c57600080fd5b8101908080359060200190929190505050612011565b604051808273ffffffffffffffffffffffffffffffffffffffff1673ffffffffffffffffffffffffffffffffffffffff16815260200191505060405180910390f35b34801561089057600080fd5b50610899612051565b604051808273ffffffffffffffffffffffffffffffffffffffff1673ffffffffffffffffffffffffffffffffffffffff16815260200191505060405180910390f35b3480156108e757600080fd5b50610914600480360360208110156108fe57600080fd5b810190808035906020019092919050505061207b565b6040518080602001828103825283818151815260200191508051906020019080838360005b83811015610954578082015181840152602081019050610939565b50505050905090810190601f1680156109815780820380516001836020036101000a031916815260200191505b509250505060405180910390f35b34801561099b57600080fd5b506109a4612133565b6040518082815260200191505060405180910390f35b3480156109c657600080fd5b506109cf612153565b604051808273ffffffffffffffffffffffffffffffffffffffff1673ffffffffffffffffffffffffffffffffffffffff16815260200191505060405180910390f35b610a5360048036036020811015610a2757600080fd5b81019080803573ffffffffffffffffffffffffffffffffffffffff169060200190929190505050612178565b6040518080602001828103825283818151815260200191508051906020019080838360005b83811015610a93578082015181840152602081019050610a78565b50505050905090810190601f168015610ac05780820380516001836020036101000a031916815260200191505b509250505060405180910390f35b348015610ada57600080fd5b50610ae36124c3565b604051808273ffffffffffffffffffffffffffffffffffffffff1673ffffffffffffffffffffffffffffffffffffffff16815260200191505060405180910390f35b348015610b3157600080fd5b50610b5e60048036036020811015610b4857600080fd5b81019080803590602001909291905050506124e9565b6040518080602001828103825283818151815260200191508051906020019080838360005b83811015610b9e578082015181840152602081019050610b83565b50505050905090810190601f168015610bcb5780820380516001836020036101000a031916815260200191505b509250505060405180910390f35b348015610be557600080fd5b50610bee6125a1565b604051808273ffffffffffffffffffffffffffffffffffffffff1673ffffffffffffffffffffffffffffffffffffffff16815260200191505060405180910390f35b60008060008090505b6002846040518082805190602001908083835b602083101515610c715780518252602082019150602081019050602083039250610c4c565b6001836020036101000a038019825116818451168082178552505050505050905001915050908152602001604051809103902080549050811015610eca576002846040518082805190602001908083835b602083101515610ce75780518252602082019150602081019050602083039250610cc2565b6001836020036101000a038019825116818451168082178552505050505050905001915050908152602001604051809103902081815481101515610d2757fe5b9060005260206000200160009054906101000a900473ffffffffffffffffffffffffffffffffffffffff16915060006002811115610d6157fe5b600360006002876040518082805190602001908083835b602083101515610d9d5780518252602082019150602081019050602083039250610d78565b6001836020036101000a038019825116818451168082178552505050505050905001915050908152602001604051809103902084815481101515610ddd57fe5b9060005260206000200160009054906101000a900473ffffffffffffffffffffffffffffffffffffffff1673ffffffffffffffffffffffffffffffffffffffff1673ffffffffffffffffffffffffffffffffffffffff16815260200190815260200160002060009054906101000a900460ff166002811115610e5b57fe5b1415610ebd57670de0b6b3a7640000600660008473ffffffffffffffffffffffffffffffffffffffff1673ffffffffffffffffffffffffffffffffffffffff16815260200190815260200160002054811515610eb357fe5b0492505050610ed5565b8080600101915050610c39565b506000905060009150505b919050565b600160009054906101000a900473ffffffffffffffffffffffffffffffffffffffff1673ffffffffffffffffffffffffffffffffffffffff163373ffffffffffffffffffffffffffffffffffffffff16141515610f9f576040517f08c379a000000000000000000000000000000000000000000000000000000000815260040180806020018281038252601d8152602001807f4f6e6c7920726571756573746f722063616e2063616c6c20746869732100000081525060200191505060405180910390fd5b60036000600160009054906101000a900473ffffffffffffffffffffffffffffffffffffffff1673ffffffffffffffffffffffffffffffffffffffff1673ffffffffffffffffffffffffffffffffffffffff16815260200190815260200160002060009054906101000a900460ff166001600281111561101b57fe5b81600281111561102757fe5b14151561109c576040517f08c379a000000000000000000000000000000000000000000000000000000000815260040180806020018281038252600e8152602001807f496e76616c69642073746174652e00000000000000000000000000000000000081525060200191505060405180910390fd5b600754804211151561113c576040517f08c379a00000000000000000000000000000000000000000000000000000000081526004018080602001828103825260258152602001807f54686520747820686173206e6f74206265796f6e64207468652074696d65206c81526020017f696d69742100000000000000000000000000000000000000000000000000000081525060400191505060405180910390fd5b600260036000600160009054906101000a900473ffffffffffffffffffffffffffffffffffffffff1673ffffffffffffffffffffffffffffffffffffffff1673ffffffffffffffffffffffffffffffffffffffff16815260200190815260200160002060006101000a81548160ff021916908360028111156111ba57fe5b0217905550600160009054906101000a900473ffffffffffffffffffffffffffffffffffffffff1673ffffffffffffffffffffffffffffffffffffffff166108fc674563918244f40000600660003373ffffffffffffffffffffffffffffffffffffffff1673ffffffffffffffffffffffffffffffffffffffff16815260200190815260200160002054019081150290604051600060405180830381858888f19350505050158015611270573d6000803e3d6000fd5b505050565b600060096000838152602001908152602001600020600201549050919050565b670de0b6b3a7640000341015151561133b576040517f08c379a00000000000000000000000000000000000000000000000000000000081526004018080602001828103825260258152602001807f56616c75652068617320746f2062652067726561746572207468616e2031206581526020017f746865722e00000000000000000000000000000000000000000000000000000081525060400191505060405180910390fd5b34600660003373ffffffffffffffffffffffffffffffffffffffff1673ffffffffffffffffffffffffffffffffffffffff168152602001908152602001600020819055506002836040518082805190602001908083835b6020831015156113b75780518252602082019150602081019050602083039250611392565b6001836020036101000a03801982511681845116808217855250505050505090500191505090815260200160405180910390203390806001815401808255809150509060018203906000526020600020016000909192909190916101000a81548173ffffffffffffffffffffffffffffffffffffffff021916908373ffffffffffffffffffffffffffffffffffffffff160217905550506000600360003373ffffffffffffffffffffffffffffffffffffffff1673ffffffffffffffffffffffffffffffffffffffff16815260200190815260200160002060006101000a81548160ff021916908360028111156114aa57fe5b021790555081600460003373ffffffffffffffffffffffffffffffffffffffff1673ffffffffffffffffffffffffffffffffffffffff16815260200190815260200160002090805190602001906115029291906125ca565b5080600560003373ffffffffffffffffffffffffffffffffffffffff1673ffffffffffffffffffffffffffffffffffffffff16815260200190815260200160002090805190602001906115569291906125ca565b506001600860009054906101000a900463ffffffff1601600860006101000a81548163ffffffff021916908363ffffffff1602179055503360096000600860009054906101000a900463ffffffff1663ffffffff16815260200190815260200160002060010160006101000a81548173ffffffffffffffffffffffffffffffffffffffff021916908373ffffffffffffffffffffffffffffffffffffffff1602179055503460096000600860009054906101000a900463ffffffff1663ffffffff168152602001908152602001600020600201819055508060096000600860009054906101000a900463ffffffff1663ffffffff168152602001908152602001600020600301908051906020019061166f9291906125ca565b508260096000600860009054906101000a900463ffffffff1663ffffffff16815260200190815260200160002060040190805190602001906116b29291906125ca565b508160096000600860009054906101000a900463ffffffff1663ffffffff16815260200190815260200160002060050190805190602001906116f59291906125ca565b50600060096000600860009054906101000a900463ffffffff1663ffffffff16815260200190815260200160002060060160006101000a81548160ff0219169083600281111561174157fe5b0217905550505050565b6060600560008373ffffffffffffffffffffffffffffffffffffffff1673ffffffffffffffffffffffffffffffffffffffff1681526020019081526020016000208054600181600116156101000203166002900480601f0160208091040260200160405190810160405280929190818152602001828054600181600116156101000203166002900480156118205780601f106117f557610100808354040283529160200191611820565b820191906000526020600020905b81548152906001019060200180831161180357829003601f168201915b50505050509050919050565b60003073ffffffffffffffffffffffffffffffffffffffff1631905090565b60006009600083815260200190815260200160002060000160009054906101000a900473ffffffffffffffffffffffffffffffffffffffff169050919050565b6060600960008381526020019081526020016000206005018054600181600116156101000203166002900480601f0160208091040260200160405190810160405280929190818152602001828054600181600116156101000203166002900480156119375780601f1061190c57610100808354040283529160200191611937565b820191906000526020600020905b81548152906001019060200180831161191a57829003601f168201915b50505050509050919050565b60075481565b600160009054906101000a900473ffffffffffffffffffffffffffffffffffffffff1673ffffffffffffffffffffffffffffffffffffffff163373ffffffffffffffffffffffffffffffffffffffff16141515611a0e576040517f08c379a000000000000000000000000000000000000000000000000000000000815260040180806020018281038252601d8152602001807f4f6e6c7920726571756573746f722063616e2063616c6c20746869732100000081525060200191505060405180910390fd5b60036000600160009054906101000a900473ffffffffffffffffffffffffffffffffffffffff1673ffffffffffffffffffffffffffffffffffffffff1673ffffffffffffffffffffffffffffffffffffffff16815260200190815260200160002060009054906101000a900460ff1660016002811115611a8a57fe5b816002811115611a9657fe5b141515611b0b576040517f08c379a000000000000000000000000000000000000000000000000000000000815260040180806020018281038252600e8152602001807f496e76616c69642073746174652e00000000000000000000000000000000000081525060200191505060405180910390fd5b600260036000600160009054906101000a900473ffffffffffffffffffffffffffffffffffffffff1673ffffffffffffffffffffffffffffffffffffffff1673ffffffffffffffffffffffffffffffffffffffff16815260200190815260200160002060006101000a81548160ff02191690836002811115611b8957fe5b02179055506000809054906101000a900473ffffffffffffffffffffffffffffffffffffffff1673ffffffffffffffffffffffffffffffffffffffff166108fc674563918244f40000600660003373ffffffffffffffffffffffffffffffffffffffff1673ffffffffffffffffffffffffffffffffffffffff16815260200190815260200160002054019081150290604051600060405180830381858888f19350505050158015611c3e573d6000803e3d6000fd5b5050565b6000606060008060008090505b6002866040518082805190602001908083835b602083101515611c875780518252602082019150602081019050602083039250611c62565b6001836020036101000a038019825116818451168082178552505050505050905001915050908152602001604051809103902080549050811015611fc0576002866040518082805190602001908083835b602083101515611cfd5780518252602082019150602081019050602083039250611cd8565b6001836020036101000a038019825116818451168082178552505050505050905001915050908152602001604051809103902081815481101515611d3d57fe5b9060005260206000200160009054906101000a900473ffffffffffffffffffffffffffffffffffffffff16915060006002811115611d7757fe5b600360006002896040518082805190602001908083835b602083101515611db35780518252602082019150602081019050602083039250611d8e565b6001836020036101000a038019825116818451168082178552505050505050905001915050908152602001604051809103902084815481101515611df357fe5b9060005260206000200160009054906101000a900473ffffffffffffffffffffffffffffffffffffffff1673ffffffffffffffffffffffffffffffffffffffff1673ffffffffffffffffffffffffffffffffffffffff16815260200190815260200160002060009054906101000a900460ff166002811115611e7157fe5b1415611fb35781600460008473ffffffffffffffffffffffffffffffffffffffff1673ffffffffffffffffffffffffffffffffffffffff168152602001908152602001600020670de0b6b3a7640000600660008673ffffffffffffffffffffffffffffffffffffffff1673ffffffffffffffffffffffffffffffffffffffff16815260200190815260200160002054811515611f0957fe5b04818054600181600116156101000203166002900480601f016020809104026020016040519081016040528092919081815260200182805460018160011615610100020316600290048015611f9f5780601f10611f7457610100808354040283529160200191611f9f565b820191906000526020600020905b815481529060010190602001808311611f8257829003601f168201915b50505050509150945094509450505061200a565b8080600101915050611c4f565b50600090508060006040805190810160405280601f81526020017f4e6f2072656c61746976652064656c656761746520696e666f6d6174696f6e0081525090809050935093509350505b9193909250565b60006009600083815260200190815260200160002060010160009054906101000a900473ffffffffffffffffffffffffffffffffffffffff169050919050565b6000600160009054906101000a900473ffffffffffffffffffffffffffffffffffffffff16905090565b6060600960008381526020019081526020016000206003018054600181600116156101000203166002900480601f0160208091040260200160405190810160405280929190818152602001828054600181600116156101000203166002900480156121275780601f106120fc57610100808354040283529160200191612127565b820191906000526020600020905b81548152906001019060200180831161210a57829003601f168201915b50505050509050919050565b6000600860009054906101000a900463ffffffff1663ffffffff16905090565b6000809054906101000a900473ffffffffffffffffffffffffffffffffffffffff1681565b6060600360008373ffffffffffffffffffffffffffffffffffffffff1673ffffffffffffffffffffffffffffffffffffffff16815260200190815260200160002060009054906101000a900460ff16600060028111156121d457fe5b8160028111156121e057fe5b141515612255576040517f08c379a000000000000000000000000000000000000000000000000000000000815260040180806020018281038252600e8152602001807f496e76616c69642073746174652e00000000000000000000000000000000000081525060200191505060405180910390fd5b674563918244f4000034148015156122fb576040517f08c379a000000000000000000000000000000000000000000000000000000000815260040180806020018281038252602d8152602001807f596f752073686f756c642066697273742070617920746865206465706f73697481526020017f20666f722035206574686572210000000000000000000000000000000000000081525060400191505060405180910390fd5b8373ffffffffffffffffffffffffffffffffffffffff163373ffffffffffffffffffffffffffffffffffffffff16141515156123c5576040517f08c379a000000000000000000000000000000000000000000000000000000000815260040180806020018281038252602a8152602001807f5468652064656c656761746f722063616e206e6f74206265207265717565737481526020017f6f7220697473656c66210000000000000000000000000000000000000000000081525060400191505060405180910390fd5b336000806101000a81548173ffffffffffffffffffffffffffffffffffffffff021916908373ffffffffffffffffffffffffffffffffffffffff16021790555083600160006101000a81548173ffffffffffffffffffffffffffffffffffffffff021916908373ffffffffffffffffffffffffffffffffffffffff160217905550603c42016007819055506001600360008673ffffffffffffffffffffffffffffffffffffffff1673ffffffffffffffffffffffffffffffffffffffff16815260200190815260200160002060006101000a81548160ff021916908360028111156124ac57fe5b02179055506124ba8461174b565b92505050919050565b600160009054906101000a900473ffffffffffffffffffffffffffffffffffffffff1681565b6060600960008381526020019081526020016000206004018054600181600116156101000203166002900480601f0160208091040260200160405190810160405280929190818152602001828054600181600116156101000203166002900480156125955780601f1061256a57610100808354040283529160200191612595565b820191906000526020600020905b81548152906001019060200180831161257857829003601f168201915b50505050509050919050565b60008060009054906101000a900473ffffffffffffffffffffffffffffffffffffffff16905090565b828054600181600116156101000203166002900490600052602060002090601f016020900481019282601f1061260b57805160ff1916838001178555612639565b82800160010185558215612639579182015b8281111561263857825182559160200191906001019061261d565b5b509050612646919061264a565b5090565b61266c91905b80821115612668576000816000905550600101612650565b5090565b9056fea165627a7a72305820a2a5abb9a9ca4480150f68d6005eb59dc8c9f39d96c8341be40608180441a7460029",
  "source": "pragma solidity ^0.5.0;\n\ncontract Project {\n\n    // \n    address payable public delegator;\n    // \n    address payable public requestor;\n    // \n    enum State { Created, Locked, Inactive }\n    // \n    mapping(string => address[]) delegateInfo;\n    // \n    mapping(address => State) delegateState;\n    // \n    mapping(address => string) destinationInfo;\n    // \n    mapping (address => string) secretInfo;\n    // \n    mapping (address => uint) valueInfo;\n    // \n    uint public txLimit;\n\n    uint32 delegationCount = 0;\n\n    struct Delegation{\n         // \n        address payable delegator;\n        // \n        address payable requestor;\n        uint pay;\n        string code;\n        string source;\n        string destination;\n        State state;\n    }\n    mapping (uint => Delegation) delegateList;\n\n    // \n    // modifier OnlyOnBoard(string s){\n    //     require(delegateInfo[s].length!=0, \"There is no relative delegate info\");\n    //     _;\n    // }\n    function getdelegator(uint id)\n        public \n        view \n        returns(address)\n    {\n        return delegateList[id].delegator;\n    }\n\n    function getrequestor(uint id)\n        public \n        view \n        returns(address)\n    {\n        return delegateList[id].requestor;\n    }\n\n    function getCode(uint id)\n        public \n        view \n        returns(string memory)\n    {\n        return delegateList[id].code;\n    }\n\n    function getSource(uint id)\n        public \n        view \n        returns(string memory)\n    {\n        return delegateList[id].source;\n    }\n\n    function getDestination(uint id)\n        public \n        view \n        returns(string memory)\n    {\n        return delegateList[id].destination;\n    }\n\n    function getPay(uint id)\n        public \n        view \n        returns(uint)\n    {\n        return delegateList[id].pay;\n    }\n\n    function getDeleCount() \n        public \n        view \n        returns(uint)\n    {\n        return delegationCount;\n    }\n\n    modifier onlyAfter(uint _time) { \n        require(now > _time,\"The tx has not beyond the time limit!\"); \n        _; \n    }\n    \n    // \n    modifier inCreateState(State _state) {\n        require(\n            _state == State.Created,\n            \"Invalid state.\"\n        );\n        _;\n    }\n\n    // \n    modifier inLockedState(State _state) {\n        require(\n            _state == State.Locked,\n            \"Invalid state.\"\n        );\n        _;\n    }\n\n    //  \n    modifier onlyRequestor(){\n        require(msg.sender==requestor,\"Only requestor can call this!\");\n        _;\n    }\n\n    modifier condition(bool _condition) {\n        require(_condition,\"You should first pay the deposit for 5 ether!\");\n        _;\n    }\n\n    // \n    // delegate:,destination:,secret:\n    function release(string memory delegate,string memory destination,string memory secret) \n        public \n        payable\n    {\n        // 1\n        require(msg.value>=1 ether, \"Value has to be greater than 1 ether.\");\n        valueInfo[msg.sender] = msg.value;\n        delegateInfo[delegate].push(msg.sender);\n        // \n        delegateState[msg.sender] = State.Created;\n        destinationInfo[msg.sender] = destination;\n        secretInfo[msg.sender] = secret;\n\n        delegationCount = delegationCount + 1;\n        delegateList[delegationCount].requestor = msg.sender;\n        delegateList[delegationCount].pay = msg.value;\n        delegateList[delegationCount].code =  secret;\n        delegateList[delegationCount].source = delegate;\n        delegateList[delegationCount].destination = destination;\n        delegateList[delegationCount].state = State.Created;\n    }\n    \n\n    // \n    function delegate(string memory s) \n        public \n        view \n        // inCreateState(delegateState[delegateInfo[s][0]])\n        returns(address,string memory,uint){\n        address res;\n        for(uint i = 0;i< delegateInfo[s].length;i++){\n            res = delegateInfo[s][i];\n            // \n            if(delegateState[delegateInfo[s][i]]==State.Created){\n                // ,,\n                return (res,destinationInfo[res],valueInfo[res]/(10**18));\n            }\n        }\n        delete res;\n        return (res,\"No relative delegate infomation\",0);\n    }\n    \n    function getSecretInfo(address addr) \n        public \n        view\n        returns(string memory)\n    {\n        return secretInfo[addr];\n    }\n    \n    // function accept(uint id)\n    //     public\n    //     payable\n    //     inCreateState(delegateList[id].state)\n    //     returns(string memory)\n    // {\n    //     require(msg.sender!=delegateList[id].requestor, \"The delegator can not be requestor itself!\");\n    //     // \n    //     txLimit = now + 60;\n    //     // \n    //     delegateList[id].state = State.Locked;\n    //     delegateList[id].delegator = msg.sender;\n    //     // \n    //     return delegateList[id].code;\n    // }\n\n    //  function confirmed(uint id) \n    //     public \n    //     payable\n    //     inLockedState(delegateList[id].state)\n    // {   \n    //     // \n    //     delegateList[id].state = State.Inactive;\n    //     // \n    //     delegator = delegateList[id].delegator;\n    //     delegator.transfer(valueInfo[msg.sender]+5 ether);\n    // }\n\n    // \n    function acceptDelegate(address payable addr) \n        public \n        // payable\n        payable\n        // \n        inCreateState(delegateState[addr])\n        // \n        condition(msg.value == 5 ether)\n        returns(string memory)\n    {\n        require(msg.sender!=addr, \"The delegator can not be requestor itself!\");\n        delegator = msg.sender;\n        requestor = addr;\n        // \n        txLimit = now + 60;\n        // \n        delegateState[addr] = State.Locked;\n        // \n        // return secretInfo[addr];\n        return getSecretInfo(addr);\n    }\n    \n    // \n    function confirmReceived() \n        public \n        payable\n        onlyRequestor()\n        inLockedState(delegateState[requestor])\n    {   \n        // \n        delegateState[requestor] = State.Inactive;\n        // \n        delegator.transfer(valueInfo[msg.sender]+5 ether);\n    }\n \n    // \n    function confirmNotReceived()\n        public\n        payable\n        onlyRequestor()\n        inLockedState(delegateState[requestor])\n        onlyAfter(txLimit)\n    {\n        // \n        delegateState[requestor] = State.Inactive;\n        // value\n        requestor.transfer(valueInfo[msg.sender]+5 ether);\n    }\n\n    function getContractBal() public view returns(uint) {\n        return address(this).balance;\n    }\n\n    function getDelegation(string memory s) public view returns(uint){\n        address res;\n        for(uint i = 0;i< delegateInfo[s].length;i++){\n            res = delegateInfo[s][i];\n            // \n            if(delegateState[delegateInfo[s][i]]==State.Created){\n                // ,,\n                return valueInfo[res]/(10**18);\n            }\n        }\n        delete res;\n        return 0;\n    }\n\n    function getDelegator() public view returns(address){\n        return delegator;\n    }\n\n    function getRequestor() public view returns(address){\n        return requestor;\n    }\n}\n// user for test input\n// \"\",\"\",\"111\"\n// \"\",\"\",\"222\"\n// \"\"   \n",
  "sourcePath": "/Users/hansen/Desktop/dapp/contracts/Project.sol",
  "compiler": {
    "name": "solc",
    "version": "0.5.0+commit.1d4f565a.Emscripten.clang"
  },
  "schemaVersion": "3.0.0",
  "updatedAt": "2018-12-27T11:27:42.547Z",
  "devdoc": {
    "methods": {}
  },
  "userdoc": {
    "methods": {}
  }
}